{
  "_format": "hh-sol-artifact-1",
  "contractName": "Identeefi",
  "sourceName": "contracts/Identeefi.sol",
  "abi": [
    {
      "inputs": [
        {
          "internalType": "string",
          "name": "_serialNumber",
          "type": "string"
        },
        {
          "internalType": "string",
          "name": "_actor",
          "type": "string"
        },
        {
          "internalType": "string",
          "name": "_location",
          "type": "string"
        },
        {
          "internalType": "string",
          "name": "_timestamp",
          "type": "string"
        },
        {
          "internalType": "bool",
          "name": "_isSold",
          "type": "bool"
        }
      ],
      "name": "addProductHistory",
      "outputs": [],
      "stateMutability": "nonpayable",
      "type": "function"
    },
    {
      "inputs": [
        {
          "internalType": "string",
          "name": "_serialNumber",
          "type": "string"
        }
      ],
      "name": "getProduct",
      "outputs": [
        {
          "internalType": "string",
          "name": "",
          "type": "string"
        },
        {
          "internalType": "string",
          "name": "",
          "type": "string"
        },
        {
          "internalType": "string",
          "name": "",
          "type": "string"
        },
        {
          "internalType": "string",
          "name": "",
          "type": "string"
        },
        {
          "internalType": "string",
          "name": "",
          "type": "string"
        },
        {
          "components": [
            {
              "internalType": "uint256",
              "name": "id",
              "type": "uint256"
            },
            {
              "internalType": "string",
              "name": "actor",
              "type": "string"
            },
            {
              "internalType": "string",
              "name": "location",
              "type": "string"
            },
            {
              "internalType": "string",
              "name": "timestamp",
              "type": "string"
            },
            {
              "internalType": "bool",
              "name": "isSold",
              "type": "bool"
            }
          ],
          "internalType": "struct Identeefi.ProductHistory[]",
          "name": "",
          "type": "tuple[]"
        }
      ],
      "stateMutability": "view",
      "type": "function"
    },
    {
      "inputs": [],
      "name": "owner",
      "outputs": [
        {
          "internalType": "address",
          "name": "",
          "type": "address"
        }
      ],
      "stateMutability": "view",
      "type": "function"
    },
    {
      "inputs": [
        {
          "internalType": "string",
          "name": "_name",
          "type": "string"
        },
        {
          "internalType": "string",
          "name": "_brand",
          "type": "string"
        },
        {
          "internalType": "string",
          "name": "_serialNumber",
          "type": "string"
        },
        {
          "internalType": "string",
          "name": "_description",
          "type": "string"
        },
        {
          "internalType": "string",
          "name": "_image",
          "type": "string"
        },
        {
          "internalType": "string",
          "name": "_actor",
          "type": "string"
        },
        {
          "internalType": "string",
          "name": "_location",
          "type": "string"
        },
        {
          "internalType": "string",
          "name": "_timestamp",
          "type": "string"
        }
      ],
      "name": "registerProduct",
      "outputs": [],
      "stateMutability": "nonpayable",
      "type": "function"
    }
  ],
  "bytecode": "0x608060405234801561001057600080fd5b5061191e806100206000396000f3fe608060405234801561001057600080fd5b506004361061004c5760003560e01c80633e2357e31461005157806368111cce1461006d5780638da5cb5b146100a2578063b4b33ef5146100c0575b600080fd5b61006b60048036038101906100669190610e18565b6100dc565b005b61008760048036038101906100829190610fae565b61017b565b6040516100999695949392919061123a565b60405180910390f35b6100aa6107f7565b6040516100b79190611306565b60405180910390f35b6100da60048036038101906100d5919061134d565b61081b565b005b60006001876040516100ee9190611474565b908152602001604051809103902090508881600001908161010f9190611697565b50878160030190816101219190611697565b50868160010190816101339190611697565b50858160020190816101459190611697565b50848160040190816101579190611697565b506000816006018190555061017087858585600061081b565b505050505050505050565b60608060608060608060006001886040516101969190611474565b90815260200160405180910390206006015467ffffffffffffffff8111156101c1576101c0610ced565b5b6040519080825280602002602001820160405280156101fa57816020015b6101e7610c83565b8152602001906001900390816101df5790505b50905060005b6001896040516102109190611474565b90815260200160405180910390206006015481101561047e576001896040516102399190611474565b908152602001604051809103902060050160006001836102599190611798565b81526020019081526020016000206040518060a00160405290816000820154815260200160018201805461028c906114ba565b80601f01602080910402602001604051908101604052809291908181526020018280546102b8906114ba565b80156103055780601f106102da57610100808354040283529160200191610305565b820191906000526020600020905b8154815290600101906020018083116102e857829003601f168201915b5050505050815260200160028201805461031e906114ba565b80601f016020809104026020016040519081016040528092919081815260200182805461034a906114ba565b80156103975780601f1061036c57610100808354040283529160200191610397565b820191906000526020600020905b81548152906001019060200180831161037a57829003601f168201915b505050505081526020016003820180546103b0906114ba565b80601f01602080910402602001604051908101604052809291908181526020018280546103dc906114ba565b80156104295780601f106103fe57610100808354040283529160200191610429565b820191906000526020600020905b81548152906001019060200180831161040c57829003601f168201915b505050505081526020016004820160009054906101000a900460ff1615151515815250508282815181106104605761045f6117cc565b5b60200260200101819052508080610476906117fb565b915050610200565b5060018860405161048f9190611474565b90815260200160405180910390206001016001896040516104b09190611474565b908152602001604051809103902060000160018a6040516104d19190611474565b908152602001604051809103902060030160018b6040516104f29190611474565b908152602001604051809103902060020160018c6040516105139190611474565b908152602001604051809103902060040185858054610531906114ba565b80601f016020809104026020016040519081016040528092919081815260200182805461055d906114ba565b80156105aa5780601f1061057f576101008083540402835291602001916105aa565b820191906000526020600020905b81548152906001019060200180831161058d57829003601f168201915b505050505095508480546105bd906114ba565b80601f01602080910402602001604051908101604052809291908181526020018280546105e9906114ba565b80156106365780601f1061060b57610100808354040283529160200191610636565b820191906000526020600020905b81548152906001019060200180831161061957829003601f168201915b50505050509450838054610649906114ba565b80601f0160208091040260200160405190810160405280929190818152602001828054610675906114ba565b80156106c25780601f10610697576101008083540402835291602001916106c2565b820191906000526020600020905b8154815290600101906020018083116106a557829003601f168201915b505050505093508280546106d5906114ba565b80601f0160208091040260200160405190810160405280929190818152602001828054610701906114ba565b801561074e5780601f106107235761010080835404028352916020019161074e565b820191906000526020600020905b81548152906001019060200180831161073157829003601f168201915b50505050509250818054610761906114ba565b80601f016020809104026020016040519081016040528092919081815260200182805461078d906114ba565b80156107da5780601f106107af576101008083540402835291602001916107da565b820191906000526020600020905b8154815290600101906020018083116107bd57829003601f168201915b505050505091509650965096509650965096505091939550919395565b60008054906101000a900473ffffffffffffffffffffffffffffffffffffffff1681565b600060018660405161082d9190611474565b90815260200160405180910390209050806006016000815480929190610852906117fb565b91905055506040518060a0016040528082600601548152602001868152602001858152602001848152602001831515815250816005016000836006015481526020019081526020016000206000820151816000015560208201518160010190816108bc9190611697565b5060408201518160020190816108d29190611697565b5060608201518160030190816108e89190611697565b5060808201518160040160006101000a81548160ff02191690831515021790555090505061094f6040518060400160405280600681526020017f69313a20257300000000000000000000000000000000000000000000000000008152508260060154610b05565b610a326040518060400160405280601981526020017f50726f6475637420486973746f72792061646465643a202573000000000000008152508260050160008460060154815260200190815260200160002060010180546109af906114ba565b80601f01602080910402602001604051908101604052809291908181526020018280546109db906114ba565b8015610a285780601f106109fd57610100808354040283529160200191610a28565b820191906000526020600020905b815481529060010190602001808311610a0b57829003601f168201915b5050505050610ba1565b610afd6040518060400160405280600c81526020017f50726f64756374203a2025730000000000000000000000000000000000000000815250826000018054610a7a906114ba565b80601f0160208091040260200160405190810160405280929190818152602001828054610aa6906114ba565b8015610af35780601f10610ac857610100808354040283529160200191610af3565b820191906000526020600020905b815481529060010190602001808311610ad657829003601f168201915b5050505050610ba1565b505050505050565b610b9d8282604051602401610b1b929190611852565b6040516020818303038152906040527fb60e72cc000000000000000000000000000000000000000000000000000000007bffffffffffffffffffffffffffffffffffffffffffffffffffffffff19166020820180517bffffffffffffffffffffffffffffffffffffffffffffffffffffffff8381831617835250505050610c3d565b5050565b610c398282604051602401610bb7929190611882565b6040516020818303038152906040527f4b5c4277000000000000000000000000000000000000000000000000000000007bffffffffffffffffffffffffffffffffffffffffffffffffffffffff19166020820180517bffffffffffffffffffffffffffffffffffffffffffffffffffffffff8381831617835250505050610c3d565b5050565b610c5481610c4c610c57610c78565b63ffffffff16565b50565b60006a636f6e736f6c652e6c6f679050600080835160208501845afa505050565b610cb4819050919050565b6040518060a00160405280600081526020016060815260200160608152602001606081526020016000151581525090565b610cbc6118b9565b565b6000604051905090565b600080fd5b600080fd5b600080fd5b600080fd5b6000601f19601f8301169050919050565b7f4e487b7100000000000000000000000000000000000000000000000000000000600052604160045260246000fd5b610d2582610cdc565b810181811067ffffffffffffffff82111715610d4457610d43610ced565b5b80604052505050565b6000610d57610cbe565b9050610d638282610d1c565b919050565b600067ffffffffffffffff821115610d8357610d82610ced565b5b610d8c82610cdc565b9050602081019050919050565b82818337600083830152505050565b6000610dbb610db684610d68565b610d4d565b905082815260208101848484011115610dd757610dd6610cd7565b5b610de2848285610d99565b509392505050565b600082601f830112610dff57610dfe610cd2565b5b8135610e0f848260208601610da8565b91505092915050565b600080600080600080600080610100898b031215610e3957610e38610cc8565b5b600089013567ffffffffffffffff811115610e5757610e56610ccd565b5b610e638b828c01610dea565b985050602089013567ffffffffffffffff811115610e8457610e83610ccd565b5b610e908b828c01610dea565b975050604089013567ffffffffffffffff811115610eb157610eb0610ccd565b5b610ebd8b828c01610dea565b965050606089013567ffffffffffffffff811115610ede57610edd610ccd565b5b610eea8b828c01610dea565b955050608089013567ffffffffffffffff811115610f0b57610f0a610ccd565b5b610f178b828c01610dea565b94505060a089013567ffffffffffffffff811115610f3857610f37610ccd565b5b610f448b828c01610dea565b93505060c089013567ffffffffffffffff811115610f6557610f64610ccd565b5b610f718b828c01610dea565b92505060e089013567ffffffffffffffff811115610f9257610f91610ccd565b5b610f9e8b828c01610dea565b9150509295985092959890939650565b600060208284031215610fc457610fc3610cc8565b5b600082013567ffffffffffffffff811115610fe257610fe1610ccd565b5b610fee84828501610dea565b91505092915050565b600081519050919050565b600082825260208201905092915050565b60005b83811015611031578082015181840152602081019050611016565b60008484015250505050565b600061104882610ff7565b6110528185611002565b9350611062818560208601611013565b61106b81610cdc565b840191505092915050565b600081519050919050565b600082825260208201905092915050565b6000819050602082019050919050565b6000819050919050565b6110b5816110a2565b82525050565b600082825260208201905092915050565b60006110d782610ff7565b6110e181856110bb565b93506110f1818560208601611013565b6110fa81610cdc565b840191505092915050565b60008115159050919050565b61111a81611105565b82525050565b600060a08301600083015161113860008601826110ac565b506020830151848203602086015261115082826110cc565b9150506040830151848203604086015261116a82826110cc565b9150506060830151848203606086015261118482826110cc565b91505060808301516111996080860182611111565b508091505092915050565b60006111b08383611120565b905092915050565b6000602082019050919050565b60006111d082611076565b6111da8185611081565b9350836020820285016111ec85611092565b8060005b85811015611228578484038952815161120985826111a4565b9450611214836111b8565b925060208a019950506001810190506111f0565b50829750879550505050505092915050565b600060c0820190508181036000830152611254818961103d565b90508181036020830152611268818861103d565b9050818103604083015261127c818761103d565b90508181036060830152611290818661103d565b905081810360808301526112a4818561103d565b905081810360a08301526112b881846111c5565b9050979650505050505050565b600073ffffffffffffffffffffffffffffffffffffffff82169050919050565b60006112f0826112c5565b9050919050565b611300816112e5565b82525050565b600060208201905061131b60008301846112f7565b92915050565b61132a81611105565b811461133557600080fd5b50565b60008135905061134781611321565b92915050565b600080600080600060a0868803121561136957611368610cc8565b5b600086013567ffffffffffffffff81111561138757611386610ccd565b5b61139388828901610dea565b955050602086013567ffffffffffffffff8111156113b4576113b3610ccd565b5b6113c088828901610dea565b945050604086013567ffffffffffffffff8111156113e1576113e0610ccd565b5b6113ed88828901610dea565b935050606086013567ffffffffffffffff81111561140e5761140d610ccd565b5b61141a88828901610dea565b925050608061142b88828901611338565b9150509295509295909350565b600081905092915050565b600061144e82610ff7565b6114588185611438565b9350611468818560208601611013565b80840191505092915050565b60006114808284611443565b915081905092915050565b7f4e487b7100000000000000000000000000000000000000000000000000000000600052602260045260246000fd5b600060028204905060018216806114d257607f821691505b6020821081036114e5576114e461148b565b5b50919050565b60008190508160005260206000209050919050565b60006020601f8301049050919050565b600082821b905092915050565b60006008830261154d7fffffffffffffffffffffffffffffffffffffffffffffffffffffffffffffffff82611510565b6115578683611510565b95508019841693508086168417925050509392505050565b6000819050919050565b600061159461158f61158a846110a2565b61156f565b6110a2565b9050919050565b6000819050919050565b6115ae83611579565b6115c26115ba8261159b565b84845461151d565b825550505050565b600090565b6115d76115ca565b6115e28184846115a5565b505050565b5b81811015611606576115fb6000826115cf565b6001810190506115e8565b5050565b601f82111561164b5761161c816114eb565b61162584611500565b81016020851015611634578190505b61164861164085611500565b8301826115e7565b50505b505050565b600082821c905092915050565b600061166e60001984600802611650565b1980831691505092915050565b6000611687838361165d565b9150826002028217905092915050565b6116a082610ff7565b67ffffffffffffffff8111156116b9576116b8610ced565b5b6116c382546114ba565b6116ce82828561160a565b600060209050601f83116001811461170157600084156116ef578287015190505b6116f9858261167b565b865550611761565b601f19841661170f866114eb565b60005b8281101561173757848901518255600182019150602085019450602081019050611712565b868310156117545784890151611750601f89168261165d565b8355505b6001600288020188555050505b505050505050565b7f4e487b7100000000000000000000000000000000000000000000000000000000600052601160045260246000fd5b60006117a3826110a2565b91506117ae836110a2565b92508282019050808211156117c6576117c5611769565b5b92915050565b7f4e487b7100000000000000000000000000000000000000000000000000000000600052603260045260246000fd5b6000611806826110a2565b91507fffffffffffffffffffffffffffffffffffffffffffffffffffffffffffffffff820361183857611837611769565b5b600182019050919050565b61184c816110a2565b82525050565b6000604082019050818103600083015261186c818561103d565b905061187b6020830184611843565b9392505050565b6000604082019050818103600083015261189c818561103d565b905081810360208301526118b0818461103d565b90509392505050565b7f4e487b7100000000000000000000000000000000000000000000000000000000600052605160045260246000fdfea26469706673582212206d404272372529fdf063fe7fc43d7e2fd0bdf605120ec21c44378e047d0d9dbf64736f6c63430008130033",
  "linkReferences": {},
  "deployedLinkReferences": {}
}